:1000000000000120750500009D0500009F0500000F
:10001000A1050000A3050000A505000000000000E8
:10002000000000000000000000000000A705000024
:10003000A905000000000000AB050000AD050000B0
:10004000AF050000AF050000AF050000AF050000E0
:10005000AF050000AF050000AF050000AF050000D0
:10006000AF050000AF050000AF050000AF050000C0
:10007000AF050000AF050000AF050000AF050000B0
:10008000AF05000045080000AF050000AF05000007
:10009000AF050000AF050000AF050000AF05000090
:1000A000AF050000AF050000AF050000AF05000080
:1000B000AF050000AF0500000000000000000000D8
:1000C000AF050000AF050000AF050000AF05000060
:1000D000AF050000AF050000AF0500000000000004
:1000E0000000000000000000000000000000000010
:1000F0000000000000000000000000000000000000
:1001000000000000000000000000000000000000EF
:1001100000000000000000000000000000000000DF
:1001200000000000000000000000000000000000CF
:1001300000000000000000000000000000000000BF
:1001400000000000000000000000000000000000AF
:10015000000000000000000000000000000000009F
:10016000000000000000000000000000000000008F
:10017000000000000000000000000000000000007F
:10018000000000000000000000000000000000006F
:10019000000000000000000000000000000000005F
:1001A000000000000000000000000000000000004F
:1001B000000000000000000000000000000000003F
:1001C000000000000000000000000000000000002F
:1001D000000000000000000000000000000000001F
:1001E000000000000000000000000000000000000F
:1001F00000000000000000000000000000000000FF
:1002000010B5054C237833B9044B13B10448AFF350
:1002100000800123237010BD3C040020000000007A
:10022000DC15000008B5034B1BB103490348AFF3CD
:10023000008008BD0000000040040020DC15000024
:10024000A3F5803A704700BF174B002B08BF134B34
:100250009D46FFF7F5FF00218B460F461348144AD1
:10026000121A00F05FF80E4B002B00D098470D4B90
:10027000002B00D098470020002104000D000D48FD
:10028000002802D00C4800F00FF900F027F82000F9
:10029000290000F06DFD00F011F800BF000008001B
:1002A0000000000000000000000001203C040020CD
:1002B000580A0020A9040000B504000008B5002178
:1002C000044600F08BF8044B1868C36B03B19847E1
:1002D000204601F0C3F800BF7814000070B50D4E41
:1002E0000D4D761BB61006D0002455F8043B0134A2
:1002F0009847A642F9D1094E094D761B01F0B0F896
:10030000B61006D0002455F8043B01349847A642A5
:10031000F9D170BD300400203004002038040020E2
:1003200030040020830730B548D0541E002A3FD047
:10033000CAB2034601E0013C3AD303F8012B9D0702
:10034000F9D1032C2DD9CDB245EA05250F2C45EA6C
:10035000054536D9A4F1100222F00F0C03F1200E4E
:10036000E6444FEA121C03F1100242E9045542E947
:10037000025510327245F8D10CF1010214F00C0F45
:1003800003EB021204F00F0C13D0ACF1040323F0C2
:1003900003030433134442F8045B9342FBD10CF093
:1003A00003042CB1CAB21C4403F8012B9C42FBD1BC
:1003B00030BD64461346002CF4D1F9E703461446D9
:1003C000BFE71A46A446E0E7024B13B1024800F02B
:1003D0006BB8704700000000B50400002DE9F84F2D
:1003E0002F4B2DED028B834618680F4600F078F8EE
:1003F0002C4BD3F80080D8F84861AEB108EE10BAA3
:100400004FF001094FF0000A7468651E0CD40134E6
:1004100006EB840487B1D4F80031BB420CD0013D17
:100420006B1CA4F10404F5D1BDEC028B1C4B1868C5
:10043000BDE8F84F00F056B873682268013BAB4244
:100440000CBF7560C4F800A0002AE8D0D6F8880177
:10045000D6F804B009FA05F101420BD19047726851
:100460005A4513D1D8F84831B342D8D01E46002E91
:10047000CAD1D9E7D6F88C0101420CD1D4F880104A
:1004800018EE100A904772685A45EBD0D8F84861C8
:10049000002EB9D1C8E7D4F880009047DFE700BF4D
:1004A0002804002078140000002301461A4618464C
:1004B00000F01AB838B5084B084D5B1B9C1007D0EC
:1004C000043B1D44013C55F804399847002CF9D1F0
:1004D000BDE8384000F0CABF3C04002038040020CA
:1004E000704700BF704700BF2DE9F047DFF880A0DC
:1004F0000646DAF8000098460F469146FFF7F0FFEF
:100500001A4B1B68D3F8484124B365681F2D26DCBD
:100510005EB96B1C0235DAF80000636044F82570A0
:10052000FFF7E0FF0020BDE8F08704EB8501012321
:10053000C1F88890D4F88821AB401A43022EC4F841
:100540008821C1F80881E4D1D4F88C211343C4F880
:100550008C31DEE703F5A674C3F84841D5E7DAF835
:100560000000FFF7BFFF4FF0FF30DCE7781400001A
:10057000280400200649074A074B9B1A03DD043B69
:10058000C858D050FBDC00F049F8FFF75DFE0000D2
:10059000E8150000000000203C040020FEE7FEE714
:1005A000FEE7FEE7FEE7FEE7FEE7FEE7FEE7FEE723
:1005B0000B4B1B685A1C05BF0A4B0B4A0B4A1068B1
:1005C0000ABF1B781068C0F30310062B05D103384F
:1005D00003288CBF0020012070470020704700BF17
:1005E00030010010E00F00F0E80F00F034010010BF
:1005F000074B1B78062B09D1064B1B68C3F303136B
:10060000033B032B02D8044AD05C7047002070479C
:10061000E00F00F0E80F00F08414000008B5FFF7C9
:10062000C7FF28B1664B674A1B68C3F304231360F6
:10063000FFF7DEFF10B1644B644A1A60FFF7B8FFA2
:1006400028B1634B634A1B68C3F342331360FFF75F
:10065000CFFF20B1604AD36823F08073D360FFF7E7
:10066000A7FF40B14FF080430022C3F80C21C3F82C
:100670001021C3F83825FFF7BBFF10B1574B0322F9
:100680001A60FFF7B5FF40B1554B05221A600122F1
:100690009A6700229A603F225A60524B1A68511C96
:1006A0000BBF514B514B1A781B6802BF08331B68B4
:1006B000C3F30313062A4DD1033B032B4AD84C4AFC
:1006C000D35C002B46D04FF080524A4BD2F8041432
:1006D000C3F82015D2F80814C3F82415D2F80C1466
:1006E000C3F82815D2F81014C3F82C15D2F8141436
:1006F000C3F83015D2F81814C3F83415D2F81C1406
:10070000C3F84015D2F82014C3F84415D2F82414C5
:10071000C3F84815D2F82814C3F84C15D2F82C1495
:10072000C3F85015D2F83014C3F85415D2F8341465
:10073000C3F86015D2F83814C3F86415D2F83C1425
:10074000C3F86815D2F84014C3F86C15D2F84424E5
:10075000C3F87025FFF72CFF28B1274B274A1B68E9
:1007600003F04F031360FFF723FF48B14FF08043BE
:10077000D3F80024D20744BF6FF00102C3F800246D
:10078000184B1B68062B0CD1184B1B68033B032B23
:1007900007D81B4AD35C23B11A4A136843F4806319
:1007A0001360194AD2F8883043F47003C2F88830D5
:1007B000BFF34F8FBFF36F8F144B154A1A6008BDFC
:1007C000240300104035014074C007400DF0ADBA5D
:1007D000440200103C050040F0ED00E0A0050040A0
:1007E0001056004030010010E00F00F034010010FE
:1007F0007C14000000C0004058020010E40E0040CD
:10080000801400003C17004000ED00E02C040020A4
:100810000090D003094B0A49012210B5C0030A70A9
:100820004FF47A749A60B0FBF4F0C3F840051A6094
:100830000B7803B910BD20BFFAE700BF00100140DC
:1008400059040020064BD3F8402142B1054900224B
:100850000A70C3F84021D3F8402101225A60704742
:1008600000100140590400200A4B01225A60002266
:10087000C3F808254FF48032C3F84423C3F8042397
:10088000054B602283F811234FF40032C3F8802116
:100890001A6070470010014000E100E00369C2687F
:1008A00093429CBF80681B18013B981A70472DE942
:1008B000F843D0E902940546A9EB04084068904546
:1008C00020440F46144406D900F0CAFABFF35F8FE4
:1008D000EC60BDE8F8834246A4EB090400F0C0FADE
:1008E0006868224607EB0801EEE72DE9F843C56882
:1008F0000646894617464FF000083469B3687068A9
:10090000A54228BFE418013C621B5C1BBC4228BF07
:100910003C46944228BF144649462246284400F0EB
:100920009FFAB3682544A044A1443F1BAB4208BFD3
:100930000025BFF35F8FF560002FDED14046BDE894
:10094000F883000010B5144C144AA2610223C4E9D4
:100950000433134BE361A2644FF48063114A2362B2
:10096000E264002340221049A362E01D6362E36257
:100970002265A3656365E36500F080FCBFF35F8FCC
:100980000A49204600F07AFCBFF35F8F2023A37151
:10099000BFF35F8F10BD00BF5C040020881400000F
:1009A00014050020D40400209114000095140000C8
:1009B0002DE9F84FDFF87C8098F8003082468946B0
:1009C00016460BB9FFF7BEFF182707FB0A87BD6D58
:1009D000D7F854B05D452BD93C6DF96C641BB4421B
:1009E00028BF344629444846224600F039FA3B6D78
:1009F0002544A144361BAB4208BF0025ABEB0502E2
:100A0000964228BF164656B1182303FB0A83324686
:100A1000D96C4846294400F023FA3444354424B1C3
:100A2000182000FB0A88C8F858502046BDE8F88F07
:100A30000024E3E75C04002010B50B46EFF31184BB
:100A40004FF0200181F311881946FFF7B1FF84F3BD
:100A5000118810BD70B5164B182400FB04451D44C9
:100A600004FB00331646DC6A012C0ED0022C18D091
:100A7000E4B92846FFF712FF864204D832462846DA
:100A8000FFF715FF3446204670BD2846FFF706FFE6
:100A90008642344628BF044622462846FFF707FF11
:100AA000F1E72846BDE87040FFF71FBF0024EAE7E2
:100AB0005C04002037B50B4B1B780C462BB9CDE9F5
:100AC0000002FFF73FFFDDE90002EFF311854FF071
:100AD000200181F311882146FFF7BCFF85F31188BF
:100AE00003B030BD5C040020FFF72CBFF0B501243B
:100AF000B0FBF4F58D4203D200261CB91C70F0BD8A
:100B00004C43F5E7B0FBF4F5B4FBF1F704FB15003B
:100B10002EB9002D03DC8C420CD33C46EDE7092DA9
:100B200008DD002A14BF372457242C4403F8014B56
:100B30000136F2E73024F8E72DE9F041069F002B5B
:100B400005460E4614BF4FF030084FF020083B46D4
:100B500013F8011B1446013A09B1002CF8DC002CF3
:100B600004DC17F8011B31B9BDE8F0814146284685
:100B7000B047013CF3E72846B047F2E72DE9F04FD4
:100B800087B00646884615461C4603AF4FF00A0B51
:100B90002978F1B1252903D001353046C047F7E760
:100BA0006978302908BFA978A1F1300319BF02354F
:100BB0004FF0000A03354FF0010A092B4FF00009EE
:100BC0000ED9642943D028D82529E6D01DD800297C
:100BD000DED107B0BDE8F08F15F8011B0BFB09391A
:100BE000A1F13003DAB2092AF6D9A1F16103052B8C
:100BF00004D8A1F157030A2BEED0E2E7A1F141039B
:100C0000052BDED8A1F13703F5E7582913D0632966
:100C1000BED154F8041BC9B2BFE7752911D008D85A
:100C2000692914D07329B3D154F8043B00930023ED
:100C30001FE07829ACD158394A424A413B4610213D
:100C400002E03B4600220A2154F8040B0DE054F860
:100C5000040B0028BFBF2D238DF80C3040420DF14E
:100C60000D03A8BF3B4600220A21FFF73FFF009774
:100C700053464A4641463046FFF75EFF88E7036821
:100C80005A1C0260197070470FB437B506AB0D4C93
:100C900053F8042B0C4901A8CDE90034FFF76EFF8F
:100CA000019B00255A1C019220461D7000F068FB34
:100CB000214602462846FFF7FDFE03B0BDE830405E
:100CC00004B07047140900207F0C00004FF0A042D0
:100CD0000123D2F8041503FA00F020EA01030840CA
:100CE000C2F80835C2F80C057047000010B5184965
:100CF000044600F059F958B91220FFF7E7FF154BE9
:100D00001548196801311960BDE81040FFF7BCBFF4
:100D10001249204600F048F940B91320FFF7D6FFEA
:100D20000C4B0F48196801311960EDE70D49204659
:100D300000F03AF940B91420FFF7C8FF054B0A4804
:100D4000196801311960DFE708482146DCE700BF78
:100D50009C140000140A0020A1140000B614000026
:100D6000BB140000D0140000D5140000EA140000E9
:100D7000F8B5344B0122C3F840254FF080430021E1
:100D8000C3F878251A60C3F81825C3F804119A60CF
:100D9000D3F80421002AFBD04FF0A0430322C3F86C
:100DA0004427C3F84827C3F84C27C3F850274FF40B
:100DB0000032C3F808254FF48022C3F808254FF409
:100DC0000022C3F808254FF48012C3F808250C222E
:100DD000C3F83427FFF748FDFFF786FE1A481B4C7F
:100DE0001B4D1C4EFFF750FF1B48FFF74DFF1B48E4
:100DF000FFF74AFF1120FFF769FF6420FFF70AFDA4
:100E0000124940220020FFF717FE10F0FF000ED01D
:100E10002044002700F8017C3146204600F08CFA7F
:100E200027542378002BE5D02046FFF75FFF4FF0D3
:100E3000A043D3F810359B04DCD42846FFF724FFE9
:100E4000D8E700BF00E0014000150000180A0020AC
:100E5000C6150000C31500004115000099150000DB
:100E6000844641EA000313F003036DD1403A41D3B5
:100E700051F8043B40F8043B51F8043B40F8043B74
:100E800051F8043B40F8043B51F8043B40F8043B64
:100E900051F8043B40F8043B51F8043B40F8043B54
:100EA00051F8043B40F8043B51F8043B40F8043B44
:100EB00051F8043B40F8043B51F8043B40F8043B34
:100EC00051F8043B40F8043B51F8043B40F8043B24
:100ED00051F8043B40F8043B51F8043B40F8043B14
:100EE00051F8043B40F8043B51F8043B40F8043B04
:100EF000403ABDD2303211D351F8043B40F8043BA4
:100F000051F8043B40F8043B51F8043B40F8043BE3
:100F100051F8043B40F8043B103AEDD20C3205D3B3
:100F200051F8043B40F8043B043AF9D2043208D0AB
:100F3000D2071CBF11F8013B00F8013B01D30B881D
:100F400003806046704700BF082A13D38B078DD0FB
:100F500010F003038AD0C3F10403D21ADB071CBFCD
:100F600011F8013B00F8013B80D331F8023B20F837
:100F7000023B7BE7043AD9D3013A11F8013B00F870
:100F8000013BF9D20B7803704B7843708B788370F8
:100F900060467047000000000000000000000000F4
:100FA000A2EB0300704700BF02780B78012A28BF2C
:100FB0009A42F5D16DE9044540EA0104CDE90267A2
:100FC0006FF0000C4FEA447212B380EA010414F08F
:100FD000070F6AD100F0070420F0070004F00305B2
:100FE00021F007014FEAC505F0E8042314F0040FCF
:100FF000F1E804670CFA05F462EA040266EA040602
:101000000AD063EA0403624667EA0407664603E01F
:10101000F0E80423F1E8046782FA4CF582EA06045A
:10102000A4FA8CF46CBB83FA4CF583EA0705A5FAA5
:101030008CF595B950E9022351E9026782FA4CF523
:1010400082EA0604A4FA8CF483FA4CF583EA0705D5
:10105000A5FA8CF52543DBD09CB92DBAB5FA85F4F9
:1010600024F0070427FA04F1DDE9026723FA04F308
:1010700003F0FF0001F0FF01FDE80445A0EB0100D3
:10108000704724BAB4FA84F424F0070426FA04F171
:10109000DDE9026722FA04F202F0FF0001F0FF012D
:1010A000FDE80445A0EB0100704714F0030F3CD1AC
:1010B00010F0030428D150F8082B51F8083B82FAAD
:1010C0004CF582EA0305A5FA8CF55DB950F8042CBD
:1010D00051F8043C82FA4CF582EA0305A5FA8CF536
:1010E000002DE8D02DBAB5FA85F424F0070423FAD0
:1010F00004F122FA04F202F0FF0001F0FF01FDE822
:101100000445A0EB010070474FEAC40420F003003F
:1011100050F8082B21F0030151F8083B0CFA04F4B5
:1011200062EA040263EA0403C9E710F003041AD078
:10113000A1EB040120F00300E40750F8042B06D0D3
:101140000FD28B785FFAA2F4E41A06D12BB1CB78D8
:101150005FFAB2F4E41A00D11BB920465DF8104BD7
:10116000704701F1040150F8042BCC0721F0030172
:1011700051F8043B48D824D222F07F4482FA4CF53F
:1011800094EA1325A5FA8CF50AD165B951F8043B08
:1011900084EA0204B4EB036F0ED150F8042BEBE7A2
:1011A0004FEA132355E035F07F454DD10878FDE82F
:1011B0000445C0F1000070474FEA126203F0FF03DC
:1011C00047E002EA1C4482FA4CF594EA1345A5FA7A
:1011D0008CF50AD165B951F8043B84EA0204B4EBFA
:1011E000034F0CD150F8042BEBE74FEA134330E0E8
:1011F00015EA1C4528D10B884FEA124229E04FEA34
:10120000124203EA1C4324E002F0FF0482FA4CF588
:1012100094EA1365A5FA8CF50AD165B951F8043B37
:1012200084EA0204B4EB032F09D150F8042BEBE756
:101230004FEA13630DE015F0FF0F05D10B684FEA7D
:10124000122223F07F4304E04FF00000FDE8044544
:10125000704712BA1BBA82FA4CF482EA0304A4FA69
:101260008CF5B5FA85F402FA04F203FA04F34FEAB6
:101270001260FDE80445A0EB1360704780EA0102AC
:10128000844612F0030F4FD111F0030F32D14DF805
:10129000044D11F0040F51F8043B0BD0A3F10132BF
:1012A0009A4312F0803F04BF4CF8043B51F8043BD2
:1012B00016D100BF51F8044BA3F101329A4312F04A
:1012C000803FA4F101320BD14CF8043BA24312F051
:1012D000803F04BF51F8043B4CF8044BEAD023464E
:1012E0000CF8013B13F0FF0F4FEA3323F8D15DF800
:1012F000044B704711F0010F06D011F8012B0CF8C8
:10130000012B002A08BF704711F0020FBFD031F83F
:10131000022B12F0FF0F16BF2CF8022B8CF80020C6
:1013200012F47F4FB3D1704711F8012B0CF8012B49
:10133000002AF9D1704700BF30B404789CB10D7811
:1013400084465DB10A462B4602E012F8013F2BB1FC
:10135000A342FAD1ACEB000030BC70471CF8014F3F
:10136000002CEED1F6E72046F6E700BF00000000B3
:10137000000000000000000000000000000000006D
:1013800090F800F06DE9024520F007016FF0000CC5
:1013900010F0070491F820F040F049804FF000046D
:1013A0006FF00700D1E9002391F840F000F1080048
:1013B00082FA4CF2A4FA8CF283FA4CF3A2FA8CF380
:1013C0004BBBD1E9022382FA4CF200F10800A4FAE7
:1013D0008CF283FA4CF3A2FA8CF3E3B9D1E904233B
:1013E00082FA4CF200F10800A4FA8CF283FA4CF372
:1013F000A2FA8CF37BB9D1E9062301F1200182FA2C
:101400004CF200F10800A4FA8CF283FA4CF3A2FA31
:101410008CF3002BC6D0002A04BF04301A4612BA3F
:10142000B2FA82F2FDE8024500EBD2007047D1E942
:10143000002304F00305C4F100004FEAC50514F0D1
:10144000040F91F840F00CFA05F562EA05021CBFA2
:1014500063EA050362464FF00004A9E7FEE700BF18
:10146000F8B500BFF8BC08BC9E467047F8B500BF91
:10147000F8BC08BC9E467047000000200000010137
:1014800000000001010000005465726D696E616C1E
:101490000052545400534547474552006C6564322E
:1014A000005B25645D20746F67676C6564206C6504
:1014B0006420320D0A006C656433005B25645D2096
:1014C000746F67676C6564206C656420330D0A0077
:1014D0006C656434005B25645D20746F67676C65C0
:1014E00064206C656420340D0A00756E6B6E6F7736
:1014F0006E20636F6D6D616E643A2025730D0A0076
:101500000D0A5468697320697320612064656D6FEA
:10151000206E52463532206669726D7761726520A1
:10152000636F6E74726F6C6C61626C65207669615A
:1015300020525454207465726D696E616C2E0D0AD0
:10154000005479706520226C65643222202F20229D
:101550006C65643322202F20226C6564342220665F
:101560006F6C6C6F77656420627920454E544552EC
:1015700020746F20746F67676C65204C454473203E
:101580006F6E20746865206E524635322D444B20B4
:10159000626F6172642E0D0A00436C69636B696E41
:1015A0006720627574746F6E203120697320616EDC
:1015B0006E6F756E636564206F7665722052545449
:1015C0002E0D0A0D0A00627574746F6E2031206949
:1015D0007320707265737365640D0A00000000006B
:0815E00060ECFF7F0100000038
:1015E80000000000EC02002054030020BC0300208F
:1015F80000000000000000000000000000000000E3
:1016080000000000000000000000000000000000D2
:1016180000000000000000000000000000000000C2
:1016280000000000000000000000000000000000B2
:1016380000000000000000000000000000000000A2
:101648000000000000000000000000000000000092
:101658000000000000000000000000000000000082
:101668000000000000000000000000000000000072
:101678000000000000000000000000000000000062
:101688000000000000000000010000000000000051
:101698000E33CDAB34126DE6ECDE05000B00000016
:1016A8000000000000000000000000000000000032
:1016B8000000000000000000000000000000000022
:1016C8000000000000000000000000000000000012
:1016D8000000000000000000000000000000000002
:101A08000000000000000000580400200090D003EF
:0C1A1800C90300002502000001020000CC
:04000003000005757F
:00000001FF
